:020000020000FC
:060000000C946702189544
:0A0034000C94E0001895189518953B
:100048000C946500F0E0ECE780E48083EBE7882718
:100058008083EAE787E880830895F0E08770ECE71B
:100068009081987F982B90830895F0E0EAE780814B
:1000780080648083808186FDFDCFE8E78081E9E7A1
:10008800908193700895F8948827F0E0E5EC8083D8
:1000980088E0E4EC808386E0E2EC8083E1EC88E9A8
:1000A8008083789408959F93FF93EF93F0E0E0ECBA
:1000B800908195FFFDCFE6EC7083EF91FF919F91C2
:1000C8000895F8940F931F932F931FB71F93DF93EF
:1000D800CF93DD27C6EC08811AE0101B19F44427DA
:1000E8000C94A1001DE0101B19F444270C94A100E6
:1000F80013E4101B19F440680C94A10011E4101BC0
:1001080019F440640C94A10012E5101B19F444275B
:100118000C9467021FE3101B19F440610C94A100B2
:100128000F70142F1F70C0E0D1E02227C10FD21F1B
:10013800088313951F70407F412BCF91DF911F914A
:100148001FBF2F911F910F9178941895569A84B5D7
:10015800836884BD85B5816085BD089587BD089590
:10016800239AB0E0A0EB03EC0C93B0E0A1EB02E023
:100178000C930895B0E0A3EB8C930895F0E0EFE6BC
:10018800808181608083219A229A8FEFF0E0E7E8EE
:100198008083E6E88083E0E882EA8083E1E889E119
:1001A80080830895F0E0EBE89083EAE88083E9E84B
:1001B800B083E8E8A0830895F8941F931FB71F93AE
:1001C8006A9511F461E340621F911FBF1F91189552
:1001D80020E1FF24EE24DD24FF27000F111FDD1C82
:1001E800EE1CFF1C2A9509F40895E0E132913D5F69
:1001F80033FD30833081305D37FD3083ED30B1F72A
:10020800ECCF3295CE2CDF2CEE0CFF1CCC0CDD1C79
:10021800CC0CDD1CCC0CDD1CEC0CFD1C3F70E30E83
:1002280008F4F39408952F70FF24E22E312FE9DFAC
:10023800312FE8DF302FE5DF302FE4DF08956F93AB
:100248005527442760E13695279510F4400F511F34
:1002580057954795379527956A95B9F76F910895FA
:10026800EE24FF1841E1001F111F4A9509F4089573
:10027800EE1CFF1CE21AF30A20F4E20EF31E889427
:10028800F2CF0894F0CF0AB10F600AB9539A209AB6
:10029800529A28985A985B9813E00E948E010E94FF
:1002A80032060E94A8010E942B060E94A80112E0B3
:1002B8000E948E010E94320612E00E948E0118E010
:1002C8000E948E010E94AD0110E00E948E011CE088
:1002D8000E948E010E94AD012D9810E00E948E01AF
:1002E80016E00E948E010E94AD0111E00E948E016D
:1002F80010E00E948E010E94AD0110E00E948E0164
:1003080011E00E948E010E94AD010E942B060E94FE
:10031800D00108952F933F93212F2F7022953BB141
:100328003F70322B3BB90E94A8013F912F9108954D
:100338002F9320E8000000000000000000000000EB
:100348002A95C1F72F9108955B9A0E949C015B98AA
:10035800089557985A9A5B9A29B12078D1F75B98F3
:10036800579A5A9808955A982898106812950E9492
:10037800AD010E948E0112950E948E01289A08955F
:100388005A98289A12950E948E0112950E948E0101
:100398000E94AD01289808955A98289810E412955B
:1003A8000E948E0112950E948E010E94AD01289A2A
:1003B80010E012950E948E0112950E948E010E94F3
:1003C800AD011EE012950E948E0112950E948E01C9
:1003D8000E94AD0111E112950E948E0112950E94B2
:1003E8008E010E94AD0112950E948E0112950E9405
:1003F8008E010E94AD0112950E948E0112950E94F5
:100408008E010E94AD011AE012950E948E0112958C
:100418000E948E010E94AD011BE112950E948E017F
:1004280012950E948E010E94AD0110E012950E9463
:100438008E0112950E948E010E94AD0110E0129566
:100448000E948E0112950E948E010E94AD011295A4
:100458000E948E0112950E948E010E94AD01129594
:100468000E948E0112950E948E010E94AD01129584
:100478000E948E0112950E948E010E94AD01129574
:100488000E948E0112950E948E010E94AD011CE00F
:1004980012950E948E0112950E948E010E94AD0154
:1004A80014E012950E948E0112950E948E010E94FE
:1004B800AD0118E012950E948E0112950E948E01DE
:1004C8000E94AD01089508E00EBF0FEF0DBF7894AC
:1004D800F894A895009160000861009360000DE011
:1004E8000093600078940EEF0AB90FEF04B90E94E8
:1004F80026000E94C2000E94B4000E9447000E9489
:10050800470118EC0E943B060E94D0010E94FB059F
:1005180080E00E94BE0002ED83950E94BE000E940A
:100528002B060A95C9F718EC0E943B0608EC8A9539
:100538000E94BE000E9432060A95C9F783EC0E9409
:10054800BE0010E00E948E0111E00E948E010E9400
:10055800AD010E94320600E2C0E0D1E022272993D3
:100568000A95E9F7A89582E00E9431000E943900B7
:1005780096958795969587958C3118F02C9A0C94BA
:10058800C802893108F42C98542F507819F14F7704
:1005980080E00E9431000E943900192F082F0E9424
:1005A800BF0381E00E9431000E943900192F082FF3
:1005B8000E94BF03F0E0EBE81081EAE800810E94A6
:1005C800BF03E9E81081E8E800810E94BF037AE0F0
:1005D8000E945700542F507119F00E94DC034F708D
:1005E800542F507201F14F7D4F930E9470030E9467
:1005F8004E030E94C6040E941B034F91542F50744F
:1006080091F0C3E1D2E0199108810E94BF037CE216
:100618000E945700C1E1D2E0199108810E94BF03EE
:100628007AE00E9457000E94960388959BCF0F930B
:100638001F933F93DF93CF9300271127C0E0D1E0AA
:100648003991232F39913295132B3991132B3991E5
:100658003295032B3991032B0E9417018E2D9F2D64
:10066800002711273991232F39913295132B39916E
:10067800132B39913295032B3991032B0E941701C3
:10068800AE2DBF2D0E94D600CF91DF913F911F91D3
:100698000F9108950F931F932F933F93DF93CF9359
:1006A8008827992700E4C0E1D1E029911991810FA9
:1006B800921F0A95D1F79695879596958795969561
:1006C8008795D2E0C1E199938883CF91DF913F91DB
:1006D8002F911F910F9108950F931F932F933F937D
:1006E8009F938F93DF93CF938827992700E4C0E9DE
:1006F800D1E029911991810F921F0A95D1F796950A
:1007080087959695879596958795D2E0C3E19993B5
:100718008883CF91DF918F919F913F912F911F9166
:100728000F9108950F931F93DF93CF938F93002713
:10073800C0E1D2E0188113951F731883C0E1D1E09E
:10074800110FC10FD01F80E00E9431000E943900B4
:1007580099938883C0E9D1E0C10FD01F81E00E943E
:1007680031000E943900999388838F91CF91DF914E
:100778001F910F9108950E94EC007F2D70630E94D5
:1007880057007E2D72957F7070630E9457007E2DF2
:100798007F7070630E9457007D2D72957F70706323
:1007A8000E9457007D2D7F7070630E945700089546
:1007B8000BEA12E0F7E0E6ED75910E9457000A9502
:1007C800D9F71A95C9F77AE00E94570008955F5F34
:1007D8005F4469676974616C2050726F6772616DFC
:1007E80061626C6520506F77657220537570706C0C
:1007F800795F5F5F200A20284329204665726E6171
:100808006E646F20562E2046696C6970706574742A
:10081800690A2052656C656173652064617465209E
:1008280030372F30372F323031372056312E300ABB
:10083800436F6D616E646F733A0A4320207265736B
:10084800706F6E646520636F6E2032312064696753
:1008580069746F732056565656564343434343565E
:10086800565656564343434343206C6F7320637573
:10087800616C657320736F6E0A0020656C20766169
:100888006C6F722064656C20414443206465207459
:10089800656E73696F6E2D636F727269656E7465CC
:1008A800206D656469646F73200A73656775696490
:1008B8006F206C61732074656E73696F6E65732049
:1008C8007920636F727269656E74657320746172E2
:1008D8006765742020202020202020202020202030
:1008E8002020200A4120726573706F6E6465206352
:1008F8006F6E2056565656562C434343434320703A
:10090800657269C3B3646963616D656E74652068F7
:10091800617374612071756520736520656E76C397
:10092800AD65206F74726F20636F6D616E646F2E9A
:100938000A00522072657365746561206C612066D7
:1009480075656E74650A3F206D75657374726120F4
:1009580065737465206D656E73616A6520646520D2
:1009680061797564612079207265666572656E6368
:1009780069612E2020200A001F9310E20E94C40102
:100988001F91089512E00E94B701C3E1D2E01991C6
:10099800088116950795169507950E94EC001E2D5F
:1009A80012951F7019F40E94C00403C010630E94BE
:1009B800C4011E2D1F7010630E94C40111E00E9423
:1009C800C4011D2D12951F7010630E94C4011D2DB6
:1009D8001F7010630E94C40116E50E94C4011AE04A
:1009E8000E94B701C1E1D2E01991088116950795D7
:1009F8000E94EC001E2D12951F7010630E94C40106
:100A08001F9311E00E94C4011F911E2D1F701063D7
:100A18000E94C4011D2D12951F7010630E94C4010D
:100A28001D2D1F7010630E94C40111E40E94C401AF
:100A380010E40E94B701C1E1D2E039912881303039
:100A4800D1F42030C1F410E40E94B70110E20E94F2
:100A5800C4010E94C4010E94C4010E94C4010E94F2
:100A6800C4010E94C4011DE20E94C40110E20E9458
:100A7800C4010C94BA05C3E1D2E019910881E02EB3
:100A8800F12E000F111F000F111FE00EF11E0E2D89
:100A98001F2D0E943401EF92FF920E94EC001F2D3F
:100AA8001063103309F410E20E94C401012F1E2DB7
:100AB80012951F701063003221F4103311F410E204
:100AC800012F0E94C401012F1E2D1F7010630032D8
:100AD80021F4103311F410E2012F0E94C401012FF8
:100AE8001D2D12951F701063003219F4103309F48C
:100AF80010E20E94C401012F1D2D1F7010630E9477
:100B0800C4011F9311E00E94C4011F91FF90EF9050
:100B180000271127EE0CFF1C0E0D1F1DEE0CFF1CED
:100B2800EE0CFF1C0E0D1F1DC1E1D2E0399128818A
:100B38000E943401102F1F7010630E94C401002707
:100B48001127EE0CFF1C0E0D1F1DEE0CFF1CEE0CEA
:100B5800FF1C0E0D1F1DC1E1D2E0399128810E94B2
:100B68003401102F1F7010630E94C4011F9310E0FE
:100B78000E94C4011F911AE40E94B701C1E1D2E0AA
:100B880039912881C3E1D2E019910881000F111F22
:100B9800220F331F220F331F0E942301042F152F0A
:100BA8000E94EC001F2D1F701E2D12951F7019F446
:100BB8000E94C00403C010630E94C4011E2D1F7050
:100BC80010630E94C4011F9311E00E94C4011F9189
:100BD8001D2D12951F7010630E94C4011D2D1F70DA
:100BE80010630E94C40117E50E94C40108950F9381
:100BF8001F93FF93EF9310E00FE40E94B701FCE00E
:100C0800EEE115910E94C4010A95D9F7EF91FF9181
:100C18001F910F910895203C3C204450505320765A
:100C2800312E30203E3E4040404040404040404011
:100C38004040404040404040404040404040427575
:100C4800696C643A30372F30372F3230313725E12D
:100C580037EC3A95F1F72A95E1F70895A8951F938F
:100C680015E00E942B061A95E1F71F910895A895A3
:100C78002F933F930E9432061A95E1F73F912F91E7
:020C88000895CD
:00000001FF
